:100000000C9434000C9449000C9449000C94490061
:100010000C9449000C9449000C9449000C9449003C
:100020000C9449000C9449000C9449000C9449002C
:100030000C9449000C9449000C9449000C9449001C
:100040000C9449000C9449000C9449000C9449000C
:100050000C9449000C9449000C9449000C944900FC
:100060000C9449000C94490011241FBECFEFD8E036
:10007000DEBFCDBF11E0A0E0B1E0E0EDF2E002C0F4
:1000800005900D92A431B107D9F70E9404010C9498
:1000900066010C9400001092C50088E08093C400B3
:1000A0008093C10086E08093C20008959091C000C3
:1000B00095FFFCCF8093C6000895CF93DF93EC01AA
:1000C0008991882319F00E945600FACFDF91CF91D1
:1000D00008951F93CF93DF93CDB7DEB761970FB627
:1000E000F894DEBF0FBECDBF182F81E1E0E0F1E054
:1000F000DE01119601900D928A95E1F7812F82958C
:100100008F70E1E0F0E0EC0FFD1FE80FF11D808142
:100110000E9456001F70E1E0F0E0EC0FFD1FE10FC0
:10012000F11D808161960FB6F894DEBF0FBECDBF82
:10013000DF91CF911F910C94560088E48093B80012
:100140001092B90084E08093BC00089584EA809303
:10015000BC008091BC0087FFFCCF089584E98093A8
:10016000BC008091BC0084FDFCCF08958093BB004F
:1001700084E88093BC008091BC0087FFFCCF089589
:1001800084EC8093BC008091BC0087FFFCCF089575
:1001900084E88093BC008091BC0087FFFCCF089569
:1001A0001F93CF93DF93CDB7DEB761970FB6F89467
:1001B000DEBF0FBECDBF182F81E1E0E0F1E0DE0130
:1001C000119601900D928A95E1F7812F82958F709B
:1001D000E1E0F0E0EC0FFD1FE80FF11D80810E94CF
:1001E00056001F70E1E0F0E0EC0FFD1FE10FF11D84
:1001F000808161960FB6F894DEBF0FBECDBFDF9150
:10020000CF911F910C945600CF93DF93CDB7DEB7FB
:1002100027970FB6F894DEBF0FBECDBF0E944B00EC
:100220000E949D006E0127E0C20ED11C5E0188E095
:10023000A80EB11C0E94A60080E70E94B6008CEABE
:100240000E94B60083E30E94B60080E00E94B600E0
:100250000E94AE009FEFE7EEF3E09150E040F040E7
:10026000E1F700C000000E94A60081E70E94B600EE
:100270008E010F5F1F4F78010E94C0008091BB006C
:10028000F70181937F01EC15FD05B1F70E94C800CD
:100290008091BB008F830E94AE00F80181918F0195
:1002A0000E94690080E20E9456000A151B05A9F70A
:1002B00081E191E00E945D00FFEF23ED80E3F150CA
:1002C00020408040E1F700C00000B4CFF894FFCF99
:1002D000303132333435363738394142434445467C
:0402E000000D0A0003
:00000001FF
