:100000000C9434000C943E000C943E000C943E0082
:100010000C943E000C943E000C943E000C943E0068
:100020000C943E000C943E000C943E000C943E0058
:100030000C943E000C943E000C943E000C943E0048
:100040000C943E000C943E000C943E000C943E0038
:100050000C943E000C943E000C943E000C943E0028
:100060000C943E000C943E0011241FBECFEFD8E04C
:10007000DEBFCDBF0E945A000C9462000C940000B9
:10008000CF93DF9300D0CDB7DEB7019770F01A821F
:10009000198229813A812B343340B8F729813A817A
:1000A0002F5F3F4F3A832983F4CF0F900F90DF915A
:1000B000CF910895219AC2E0C3B980E29EE40E94E4
:0800C0004000FACFF894FFCFD5
:00000001FF
