:100000000C9434000C9440000C943E000C943E0080
:100010000C943E000C943E000C943E000C943E0068
:100020000C943E000C943E000C943E000C943E0058
:100030000C943E000C943E000C9457000C943E002F
:100040000C943E000C943E000C943E000C943E0038
:100050000C943E000C943E000C943E000C943E0028
:100060000C943E000C943E0011241FBECFEFD8E04C
:10007000DEBFCDBF0E9463000C9478000C9400009A
:100080001F920F920FB60F9211248F939F9385B1F9
:1000900091E0892785B9E89816BC85B5856085BD4E
:1000A0009F918F910F900FBE0F901F9018951F92E8
:1000B0000F920FB60F92112415BCE89A0F900FBE45
:1000C0000F901F901895209A52985A9A8091690023
:1000D000826080936900E89A84B5826084BD8AEF6B
:1000E00087BD80916E00826080936E007894FFCF10
:0400F000F894FFCFB2
:00000001FF
