:100000000C9434000C9449000C9449000C94490061
:100010000C9449000C9449000C9449000C9449003C
:100020000C9449000C9449000C9449000C9449002C
:100030000C9449000C9449000C9449000C9449001C
:100040000C9449000C9449000C9449000C9449000C
:100050000C9449000C9449000C9449000C944900FC
:100060000C9449000C94490011241FBECFEFD8E036
:10007000DEBFCDBF11E0A0E0B1E0E2E1F2E002C0FE
:1000800005900D92A233B107D9F70E94A5000C94F8
:1000900007010C9400009093C5008093C40088E091
:1000A0008093C10086E08093C20008959091C000C3
:1000B00095FFFCCF8093C6000895CF93DF93EC01AA
:1000C0008991882319F00E945600FACFDF91CF91D1
:1000D00008950F931F93CF93DF93CDB7DEB761974A
:1000E0000FB6F894DEBF0FBECDBF8C0181E1E0E01A
:1000F000F1E0DE01119601900D928A95E1F7F80189
:1001000084E0F695E7958A95E1F7EF70FF2781E0A7
:1001100090E08C0F9D1FE80FF91F80810E94560010
:100120000F701127E1E0F0E0EC0FFD1FE00FF11F71
:10013000808161960FB6F894DEBF0FBECDBFDF9110
:10014000CF911F910F910C94560088E090E00E948F
:100150004B0080E680937C0087E880937A00809152
:100160007A00806480937A0080917A0086FDFCCFCB
:10017000C0917900D0E080917C00807F8160809385
:100180007C0080917A00806480937A0080917A006C
:1001900086FDFCCF0091790010E080917C00807F8B
:1001A000826080937C0080917A00806480937A00E2
:1001B00080917A0086FDFCCFF090790080917C00E0
:1001C000807F80937C0081E191E00E945D00CE0100
:1001D0000E9469008BE291E00E945D00C8010E94CC
:1001E00069008BE291E00E945D008F2D90E00E94FB
:1001F00069008EE291E00E945D002FEF89EF90E0B0
:10020000215080409040E1F700C00000A8CFF89452
:02021000FFCF1E
:10021200303132333435363738396162636465667A
:100222000041444320706F742C206C64722C206E49
:1002320074632056616C75653A20002C20000D0A0B
:020242000000BA
:00000001FF
