:100000000C9434000C9449000C9449000C94490061
:100010000C9449000C9449000C9449000C9449003C
:100020000C9449000C9449000C9449000C9449002C
:100030000C9449000C9449000C9449000C9449001C
:100040000C9449000C9449000C9449000C9449000C
:100050000C9449000C9449000C9449000C944900FC
:100060000C9449000C94490011241FBECFEFD8E036
:10007000DEBFCDBF11E0A0E0B1E0E8ECF1E002C0EE
:1000800005900D92AC32B107D9F70E94B0000C94E4
:10009000E2000C9400001092C50088E08093C40038
:1000A0008093C10086E08093C20008959091C000C3
:1000B00095FFFCCF8093C6000895CF93DF93EC01AA
:1000C0008991882319F00E945600FACFDF91CF91D1
:1000D00008951F93CF93DF93CDB7DEB761970FB627
:1000E000F894DEBF0FBECDBF182F81E1E0E0F1E054
:1000F000DE01119601900D928A95E1F7812F82958C
:100100008F70E1E0F0E0EC0FFD1FE80FF11D808142
:100110000E9456001F70E1E0F0E0EC0FFD1FE10FC0
:10012000F11D808161960FB6F894DEBF0FBECDBF82
:10013000DF91CF911F910C945600CF93DF93EC0188
:1001400081E191E00E945D008D2F0E9469008C2F5B
:100150000E94690085E191E0DF91CF910C945D00F0
:100160000E944B0087E191E00E945D00C0E0D0E07A
:10017000CE010E94DA00182FCE018F709927892BAB
:1001800019F4CE010E949D00812F0E94690085E133
:1001900091E00E945D002196CE018F709927892BF6
:1001A00021F488E291E00E945D00C11584E0D80747
:1001B000F9F6FFCFF999FECF92BD81BDF89A992744
:0801C00080B50895F894FFCF0B
:1001C80030313233343536373839616263646566C5
:1001D80000303030002000454550524F4D205465C6
:0C01E80073742053746172740D0A0000DF
:00000001FF
