:100000000C9434000C943E000C943E000C943E0082
:100010000C943E000C943E000C943E000C943E0068
:100020000C943E000C943E000C943E000C943E0058
:100030000C943E000C943E000C943E000C943E0048
:100040000C943E000C943E000C943E000C943E0038
:100050000C943E000C943E000C943E000C943E0028
:100060000C943E000C943E0011241FBECFEFD8E04C
:10007000DEBFCDBF0E9440000C949D000C94000098
:100080008AB188668AB998E68BB1877980628BB924
:100090002FEF33ED80E3215030408040E1F700C086
:1000A00000008BB1877980648BB92FEF33ED80E34B
:1000B000215030408040E1F700C000008BB18779CB
:1000C00088608BB92FEF33ED80E3215030408040C2
:1000D000E1F700C000008BB1877980668BB92FEF04
:1000E00033ED80E3215030408040E1F700C0000054
:1000F0008BB1877988648BB92FEF33ED80E3215082
:1001000030408040E1F700C000008BB18779886201
:100110008BB92FEF33ED80E3215030408040E1F781
:1001200000C000009BB92FEF33ED80E32150304039
:0E0130008040E1F700C00000A7CFF894FFCF99
:00000001FF
