:100000000C9434000C9451000C9451000C94510049
:100010000C9451000C9451000C9451000C9451001C
:100020000C9451000C9451000C9451000C9451000C
:100030000C9451000C9451000C9453000C945100FA
:100040000C9451000C9451000C9451000C945100EC
:100050000C9451000C9451000C9451000C945100DC
:100060000C9451000C94510011241FBECFEFD8E026
:10007000DEBFCDBF11E0A0E0B1E0EAE8F1E002C0F0
:1000800005900D92A230B107D9F721E0A2E0B1E0CE
:1000900001C01D92A430B207E1F70E949F000C94AA
:1000A000C3000C9400001F920F920FB60F92112400
:1000B0002F933F934F935F938F939F9320910001D2
:1000C0003091010140910201509103013203C001BE
:1000D0001124840F951F9093030180930201809156
:1000E0000201909103018F3C9740E4F08FEC97E080
:1000F00090930301809302018FEF8093010180911F
:1001000002019091030190938900809388009F9150
:100110008F915F914F913F912F910F900FBE0F9054
:100120001F901895809102019091030118161906ED
:1001300034F3109203011092020181E0DECF219A84
:1001400080918000826880938000809181008A6124
:10015000809381008FEC97E09093870080938600D6
:10016000109289001092880084B5826084BD85B5A4
:10017000846085BD8CE987BD80916E00826080932C
:0A0180006E007894FFCFF894FFCFD3
:02018A0005016D
:00000001FF
