:100000000C9434000C943E000C943E000C943E0082
:100010000C943E000C943E000C943E000C943E0068
:100020000C943E000C943E000C943E000C943E0058
:100030000C943E000C943E000C943E000C943E0048
:100040000C943E000C943E000C943E000C943E0038
:100050000C943E000C943E000C943E000C943E0028
:100060000C943E000C943E0011241FBECFEFD8E04C
:10007000DEBFCDBF0E9477000C9423010C940000DA
:1000800029B130E0082E02C0359527950A94E2F791
:1000900020FF02C080E008952FEF39EF90E021505B
:1000A00030409040E1F700C0000029B130E0082E58
:1000B00002C0359527950A94E2F720FDEBCF21E0A9
:1000C00030E002C0220F331F8A95E2F789B190E039
:1000D00082239323892BD1F32FEF39EF80E0215036
:1000E00030408040E1F700C0000081E0089584B115
:1000F000876084B98AB18B7E8AB98BB184618BB9F0
:1001000082E8809380008DE18093810088E09DE308
:10011000909387008093860020918600309187001D
:100120004AE0429FC001439F900D112464E670E0B5
:100130000E94DE007093890060938800CAE084E624
:10014000C82ED12CE12CF12C82E00E9440008823A3
:1001500099F0C43688F4C65FA0918600B0918700FC
:100160002C2F30E00E941401A70196010E94F2009A
:10017000309389002093880084E00E944000882307
:1001800099F0CB30B0F0CA50A0918600B0918700B2
:100190002C2F30E00E941401A70196010E94F2006A
:1001A0003093890020938800C43619F42A9A28983D
:1001B000CBCF2A98CA30D9F7289AC6CFAA1BBB1B27
:1001C00051E107C0AA1FBB1FA617B70710F0A61B57
:1001D000B70B881F991F5A95A9F780959095BC0178
:1001E000CD010895A1E21A2EAA1BBB1BFD010DC073
:1001F000AA1FBB1FEE1FFF1FA217B307E407F507D7
:1002000020F0A21BB30BE40BF50B661F771F881FB2
:10021000991F1A9469F760957095809590959B0148
:10022000AC01BD01CF010895A29FB001B39FC001F1
:10023000A39F700D811D1124911DB29F700D811D12
:0A0240001124911D0895F894FFCFDA
:00000001FF
