:100000000C9434000C943E000C943E000C943E0082
:100010000C943E000C943E000C943E000C943E0068
:100020000C943E000C943E000C943E000C943E0058
:100030000C943E000C943E000C943E000C943E0048
:100040000C943E000C943E000C943E000C943E0038
:100050000C943E000C943E000C943E000C943E0028
:100060000C943E000C943E0011241FBECFEFD8E04C
:10007000DEBFCDBF0E9440000C946B000C940000CA
:100080008AB188668AB98BB1877980628BB92FEF84
:1000900083ED90E3215080409040E1F700C00000E4
:1000A0008BB1877980648BB92FEF83ED90E321507A
:1000B00080409040E1F700C000008BB187798860F4
:1000C0008BB92FEF83ED90E3215080409040E1F712
:0A00D00000C00000D8CFF894FFCF65
:00000001FF
