:100000000C9434000C9456000C9446000C9446005A
:100010000C9446000C9491000C9446000C944600FD
:100020000C9446000C9446000C9446000C94D200AC
:100030000C9446000C9446000C9446000C94460028
:100040000C9446000C9446000C9446000C94460018
:100050000C9446000C9446000C9446000C94460008
:100060000C9446000C94460011241FBECFEFD8E03C
:10007000DEBFCDBF21E0A0E0B1E001C01D92A33002
:10008000B207E1F70E94F3000C941D010C940000EC
:1000900095B1987E95B925B1982F9770922B95B907
:1000A00095B1880F8071892B85B908951F920F92A1
:1000B0000FB60F9211242F933F934F935F936F933B
:1000C0007F938F939F93AF93BF93EF93FF93809111
:1000D0000101811115C0809102018F5F8F708093A3
:1000E0000201809102010E94480081E08093010199
:1000F000E89810928500109284008CE08093810033
:10010000FF91EF91BF91AF919F918F917F916F91EF
:100110005F914F913F912F910F900FBE0F901F90C5
:1001200018951F920F920FB60F9211242F933F93A1
:100130004F935F936F937F938F939F93AF93BF93EF
:10014000EF93FF934C991DC080910001811119C05C
:100150008091020181508F70809302018091020191
:100160000E94480081E08093000180916D008F7EA5
:1001700080936D0010928500109284008CE0809333
:100180008100FF91EF91BF91AF919F918F917F91EE
:100190006F915F914F913F912F910F900FBE0F90F4
:1001A0001F9018951F920F920FB60F9211248F93E4
:1001B00088E08093810080910101882319F01092DA
:1001C0000101E89A80910001882339F01092000122
:1001D00080916D00806180936D008F910F900FBEB4
:1001E0000F901F90189584B1876184B98AB18B7E76
:1001F0008AB98BB184618BB98091690082608093E8
:100200006900E89A8091680084608093680080911A
:100210006D00806180936D0088E08093810084E3AD
:100220009CE0909389008093880082E080936F0027
:0E02300080E00E9448007894FFCFF894FFCF42
:00000001FF
