:100000000C9434000C9449000C9449000C94490061
:100010000C9449000C9449000C9449000C9449003C
:100020000C9449000C9449000C9449000C9449002C
:100030000C9449000C9449000C9449000C9449001C
:100040000C9449000C9449000C9449000C9449000C
:100050000C9449000C9449000C9449000C944900FC
:100060000C9449000C94490011241FBECFEFD8E036
:10007000DEBFCDBF11E0A0E0B1E0E6EEF1E002C0EE
:1000800005900D92A032B107D9F70E94A4000C94FC
:10009000F1000C9400009093C5008093C40088E0A8
:1000A0008093C10086E08093C20008959091C000C3
:1000B00095FFFCCF8093C6000895CF93DF93EC01AA
:1000C0008991882319F00E945600FACFDF91CF91D1
:1000D0000895CF93DF938436910558F064E670E07D
:1000E0000E94DD00EC0180E3860F0E945600CE01E5
:1000F00003C08A30910560F06AE070E00E94DD0084
:10010000C82F80E3860F0E94560080E38C0F01C049
:10011000805DDF91CF910C94560090917C00907F90
:100120008F70892B80937C0080917A00806480930B
:100130007A0080917A0086FDFCCF80917800209132
:10014000790090E0922B089588E090E00E944B00A7
:1001500080E480937C0087E880937A0080E00E94AE
:100160008D007C0181E00E948D008C0182E00E9464
:100170008D00EC0180E091E00E945D00C7010E94CB
:1001800069008AE191E00E945D00C8010E94690057
:100190008AE191E00E945D00CE010E9469008DE13C
:1001A00091E00E945D002FEF89EF90E021508040A8
:1001B0009040E1F700C00000D1CFAA1BBB1B51E16A
:1001C00007C0AA1FBB1FA617B70710F0A61BB70BC7
:1001D000881F991F5A95A9F780959095BC01CD016C
:0601E0000895F894FFCF22
:1001E60041444320706F742C206C64722C206E7412
:1001F600632056616C75653A20002C20000D0A00BC
:00000001FF
