:100000000C9434000C943E000C943E000C943E0082
:100010000C943E000C943E000C943E000C943E0068
:100020000C943E000C943E000C943E000C943E0058
:100030000C943E000C943E000C943E000C943E0048
:100040000C943E000C943E000C943E000C943E0038
:100050000C943E000C943E000C943E000C943E0028
:100060000C943E000C943E0011241FBECFEFD8E04C
:10007000DEBFCDBF0E9482000C9490000C94000063
:100080008095853568F4982F990F980F282F220FA7
:10009000220F821B815088BD17BC9093B400089535
:1000A0008A3A70F48555982F990F990F282F291B9C
:1000B000922F9150282F220F820F18BC87BDEDCFB1
:1000C0008A5A982F990F990F282F291B922F9150F8
:1000D000282F220F820F88BD97BD1092B40008957B
:1000E0008AB188668AB983EA84BD81E085BD93E2DE
:1000F0009093B0008093B100089588BD67BD409390
:10010000B40008950E947000C0E08C2F0E9440004F
:10011000CF5F8FE39CE90197F1F700C00000F5CFB6
:04012000F894FFCF81
:00000001FF
