:100000000C9434000C9449000C9449000C94490061
:100010000C9449000C9449000C9449000C9449003C
:100020000C9449000C9449000C9449000C9449002C
:100030000C9449000C9449000C9449000C9449001C
:100040000C9449000C9449000C9449000C9449000C
:100050000C9449000C9449000C9449000C944900FC
:100060000C9449000C94490011241FBECFEFD8E036
:10007000DEBFCDBF11E0A0E0B1E0EAEEF1E002C0EA
:1000800005900D92AA31B107D9F70E94A4000C94F3
:10009000F3000C9400009093C5008093C40088E0A6
:1000A0008093C10086E08093C20008959091C000C3
:1000B00095FFFCCF8093C6000895CF93DF93EC01AA
:1000C0008991882319F00E945600FACFDF91CF91D1
:1000D0000895CF93DF938436910558F064E670E07D
:1000E0000E94DF00EC0180E3860F0E945600CE01E3
:1000F00003C08A30910560F06AE070E00E94DF0082
:10010000C82F80E3860F0E94560080E38C0F01C049
:10011000805DDF91CF910C94560090917C00907F90
:100120008F70892B80937C0080917A00806480930B
:100130007A0080917A0086FDFCCF80917800209132
:10014000790090E0922B089588E090E00E944B00A7
:1001500088E880937C0087E880937A0080917A0019
:10016000806480937A0080917A0086FDFCCFC091F4
:10017000780080917900D0E0D82B80E091E00E9457
:100180005D00CE010E9469008CE091E00E945D005C
:100190008FE091E00E945D00CE01845491400E9466
:1001A000690087E191E00E945D002FEF89EF90E008
:1001B000215080409040E1F700C00000CFCFAA1B43
:1001C000BB1B51E107C0AA1FBB1FA617B70710F042
:1001D000A61BB70B881F991F5A95A9F78095909574
:0A01E000BC01CD010895F894FFCF93
:1001EA004144432056616C75653A20002C20007406
:0A01FA00656D70203A20000D0A0028
:00000001FF
