:100000000C9434000C9449000C9449000C94490061
:100010000C9449000C9449000C9449000C9449003C
:100020000C9449000C9449000C9449000C9449002C
:100030000C9449000C9449000C9449000C9449001C
:100040000C9449000C9449000C9449000C9449000C
:100050000C9449000C9449000C9449000C944900FC
:100060000C9449000C94490011241FBECFEFD8E036
:10007000DEBFCDBF11E0A0E0B1E0E0E4F2E002C0FD
:1000800005900D92A036B107D9F70E94BA000C94E2
:100090001E010C9400009093C5008093C40088E971
:1000A0008093C10086E08093C20008958091C000D3
:1000B00087FFFCCF8091C60008959091C00095FF06
:1000C000FCCF8093C6000895CF93DF93EC01899114
:1000D000811103C0DF91CF9108950E945D00F7CF99
:1000E0009C01DB019C919150973060F46150710943
:1000F000DB01EC91E20FF32FF11D108280E091E023
:100100000C94640008958AB188668AB983EA84BD34
:1001100081E085BD93E29093B0008093B100089593
:1001200088BD67BD4093B4000895982F80ED890F76
:100130008A3070F08FEB890F863018F489EC890FC4
:1001400008958FE9890F863010F489EAF8CF80E0AE
:100150000895CF93DF93D62F0E949500C82F8D2F3F
:100160000E94950090E1C99FE00111248C2BDF9142
:10017000CF910895CF93DF93CDB7DEB729970FB610
:10018000F894DEBF0FBECDBF88E090E00E944B0028
:100190000E94830084E091E00E94640080E291E08C
:1001A0000E94640019860E945600182F0E945D006C
:1001B0001A3011F01D3039F58985E1E0F0E0EC0FDF
:1001C000FD1FE80FF11D10828730C1F48981833251
:1001D000B9F46F818E810E94A900182F6D818C81E6
:1001E0000E94A900082F6B818A810E94A90088BD06
:1001F00007BD1093B40089E391E0D2CF882391F238
:100200008AE491E0CDCF183011F01F3741F4BE01E0
:10021000675F7F4FCE0101960E947000C4CFE985D1
:10022000E73008F681E08E0F898781E090E08C0F3F
:100230009D1F8E0F911DFC011083B5CFF894FFCF49
:1002400008200800524742204C454420436F6E74FA
:10025000726F6C6C6572205265616479210D0A00C1
:1002600053656E6420636F6C6F727320617320231B
:100270005252474742420D0A00202D3E20436F6CE8
:100280006F7220736574210D0A00202D3E20496E87
:1002900076616C696420666F726D6174210D0A006D
:00000001FF
