:100000000C9434000C9449000C9449000C94490061
:100010000C9449000C9449000C9449000C9449003C
:100020000C9449000C9449000C9449000C9449002C
:100030000C9449000C9449000C9449000C9449001C
:100040000C9449000C9449000C9449000C9449000C
:100050000C9449000C9449000C9449000C944900FC
:100060000C9449000C94490011241FBECFEFD8E036
:10007000DEBFCDBF12E0A0E0B1E0E6E0F2E002C0FA
:1000800005900D92A032B107D9F70E94C3000C94DD
:1000900001010C9400001092C50088E08093C40018
:1000A0008093C10086E08093C20008959091C000C3
:1000B00095FFFCCF8093C6000895CF93DF93EC01AA
:1000C0008991811103C0DF91CF9108950E9456005C
:1000D000F7CF1F93CF93DF93CDB7DEB761970FB6FE
:1000E000F894DEBF0FBECDBF182F81E1E0E0F1E054
:1000F000DE01119601900D928A95E1F7E12FE295CC
:10010000EF7081E090E08C0F9D1F8E0F911DFC0120
:1001100080810E945600E12FEF7081E090E08C0F0B
:100120009D1F8E0F911DFC01808161960FB6F89482
:10013000DEBF0FBECDBFDF91CF911F910C94560053
:1001400088E48093B8001092B90084E08093BC00EA
:10015000089584EA8093BC008091BC0087FFFCCFA7
:10016000089584E98093BC008091BC0084FDFCCF9D
:1001700008958093BB0084E88093BC008091BC000C
:1001800087FFFCCF08950E944B000E94A00081E1F0
:1001900091E00E945D008FE391E00E945D000E946B
:1001A000A9008FE591E00E945D008091B900887FF1
:1001B0000E9469008DE691E00E945D0082E891E076
:1001C0000E945D0080E70E94B9008FE591E00E94E7
:1001D0005D008091B900887F0E94690083EB91E007
:1001E0000E945D008BED91E00E945D000E94B100D5
:1001F0008AEF91E00E945D0087E092E00E945D003E
:06020000FFCFF894FFCFD0
:100206003031323334353637383941424344454646
:10021600003D3D3D2049324320436F6D6D756E694B
:10022600636174696F6E20546573742077697468AE
:10023600204148543230203D3D3D0D0A0D0A003123
:100246002E2053656E64696E6720535441525420C4
:10025600636F6E646974696F6E2E2E2E0D0A002010
:1002660020205374617475733A2030780020286515
:10027600787065637465642030783038290D0A0D0E
:100286000A00322E2053656E64696E672041485419
:100296003230206164647265737320283078333895
:1002A60029202B205772697465206269742E2E2EC0
:1002B6000D0A0020286578706563746564203078BF
:1002C60031382069662073656E736F7220726573AC
:1002D600706F6E6473290D0A0D0A00332E20536564
:1002E6006E64696E672053544F5020636F6E646965
:1002F60074696F6E2E2E2E0D0A00202020446F6E1C
:1003060065210D0A0D0A003D3D3D2054657374209C
:10031600436F6D706C657465203D3D3D0D0A0000B0
:00000001FF
